{
  "contractName": "vote",
  "abi": [
    {
      "constant": true,
      "inputs": [
        {
          "name": "",
          "type": "address"
        }
      ],
      "name": "voted",
      "outputs": [
        {
          "name": "",
          "type": "bool"
        }
      ],
      "payable": false,
      "stateMutability": "view",
      "type": "function"
    },
    {
      "anonymous": false,
      "inputs": [
        {
          "indexed": false,
          "name": "eventID",
          "type": "uint256"
        },
        {
          "indexed": false,
          "name": "message",
          "type": "string"
        }
      ],
      "name": "voteEvent",
      "type": "event"
    },
    {
      "constant": false,
      "inputs": [
        {
          "name": "voter",
          "type": "address"
        },
        {
          "name": "candidate",
          "type": "uint256"
        }
      ],
      "name": "castVote",
      "outputs": [],
      "payable": false,
      "stateMutability": "nonpayable",
      "type": "function"
    },
    {
      "constant": true,
      "inputs": [
        {
          "name": "entityAddress",
          "type": "address"
        }
      ],
      "name": "hasVoted",
      "outputs": [
        {
          "name": "voteRecordExists",
          "type": "bool"
        }
      ],
      "payable": false,
      "stateMutability": "view",
      "type": "function"
    },
    {
      "constant": true,
      "inputs": [
        {
          "name": "candidate",
          "type": "uint256"
        }
      ],
      "name": "voteCount",
      "outputs": [
        {
          "name": "votes",
          "type": "uint256"
        }
      ],
      "payable": false,
      "stateMutability": "view",
      "type": "function"
    }
  ],
  "bytecode": "0x608060405234801561001057600080fd5b50610486806100206000396000f300608060405260043610610062576000357c0100000000000000000000000000000000000000000000000000000000900463ffffffff16806309eef43e146100675780634fc8a20d146100c2578063aec2ccae14610103578063ff91bb451461015e575b600080fd5b34801561007357600080fd5b506100a8600480360381019080803573ffffffffffffffffffffffffffffffffffffffff1690602001909291905050506101ab565b604051808215151515815260200191505060405180910390f35b3480156100ce57600080fd5b506100ed60048036038101908080359060200190929190505050610200565b6040518082815260200191505060405180910390f35b34801561010f57600080fd5b50610144600480360381019080803573ffffffffffffffffffffffffffffffffffffffff169060200190929190505050610232565b604051808215151515815260200191505060405180910390f35b34801561016a57600080fd5b506101a9600480360381019080803573ffffffffffffffffffffffffffffffffffffffff16906020019092919080359060200190929190505050610252565b005b60008060008373ffffffffffffffffffffffffffffffffffffffff1673ffffffffffffffffffffffffffffffffffffffff16815260200190815260200160002060009054906101000a900460ff169050919050565b6000600182141561021557600154905061022d565b600282141561022857600254905061022d565b600080fd5b919050565b60006020528060005260406000206000915054906101000a900460ff1681565b61025b826101ab565b156102d6577fdb74a9b8d9688b5ea88653b70e8d22ec974921df6038588022673cced748da1960006040518082815260200180602001828103825260198152602001807f4163636f756e742068617320616c726561647920766f746564000000000000008152506020019250505060405180910390a1610456565b60018114156102f65760016000815480929190600101919050555061038d565b60028114156103165760026000815480929190600101919050555061038c565b7fdb74a9b8d9688b5ea88653b70e8d22ec974921df6038588022673cced748da1960016040518082815260200180602001828103825260168152602001807f4e6f7420612076616c69642063616e6469646174652e000000000000000000008152506020019250505060405180910390a1610456565b5b60016000808473ffffffffffffffffffffffffffffffffffffffff1673ffffffffffffffffffffffffffffffffffffffff16815260200190815260200160002060006101000a81548160ff0219169083151502179055507fdb74a9b8d9688b5ea88653b70e8d22ec974921df6038588022673cced748da19600260405180828152602001806020018281038252600b8152602001807f566f746520636173742e200000000000000000000000000000000000000000008152506020019250505060405180910390a15b50505600a165627a7a72305820e26018c61e7b2ce15cb93c2e86238ae97ff97e6dff3c62066683bb00998fe6990029",
  "source": "pragma solidity ^0.4.4;\n\n\ncontract vote {\n\n\tmapping (address => bool) public voted;\n\tuint candidate1;\n\tuint candidate2;\n\n\tevent voteEvent(uint eventID, string message);\n\n\tfunction castVote(address voter, uint candidate) public {\n\t\tif(hasVoted(voter)){\n\t\t\temit voteEvent(0, \"Account has already voted\");\n\t\t\treturn;\n\t\t}\n\t\tif (candidate == 1){ candidate1++; }\n\t\telse if (candidate == 2){ candidate2++; }\n\t\telse{\n\t\t\temit voteEvent(1, \"Not a valid candidate.\");\n\t\t\treturn;\n\t\t}\n\t\tvoted[voter] = true;\n\t\temit voteEvent(2, \"Vote cast. \");\n\t\treturn;\n\t}\n\tfunction hasVoted(address entityAddress) public view returns(bool voteRecordExists){\n\t\treturn voted[entityAddress];\n\t}\n\n\tfunction voteCount(uint candidate) public view returns(uint votes) {\n\t\tif (candidate == 1){ return candidate1;}\n\t\telse if (candidate == 2){ return candidate2;}\n\t\telse{\n\t\t\trevert();\n\t\t}\n\t}\n}\n",
  "sourcePath": "/home/shem/Ethereum/code/truffle/contracts/vote.sol",
  "compiler": {
    "name": "solc",
    "version": "0.4.24+commit.e67f0147.Emscripten.clang"
  },
  "schemaVersion": "2.0.0",
  "updatedAt": "2018-06-04T17:37:53.783Z"
}